S01200005465726D6F6D657465722E73726563EE
S11300009EC00000BDC00000BBC00000B9C000001D
S1130010B7C00000B5C00000B3C00000B1C000000C
S1130020AFC00000ADC00000ABC00000A9C000001C
S1130030A7C00000A5C00000A3C00000A1C000002C
S11300409FC000009DC000009BC0000099C000003C
S113005097C0000095C0000093C0000091C000004C
S11300608FC000008DC000008BC0000089C000005C
S113007087C0000085C0000083C0000081C000006C
S11300807FC000007DC000007BC0000079C000007C
S113009077C0000075C0000073C0000071C000008C
S11300A06FC000006DC000006BC0000069C000009C
S11300B067C0000065C0000063C0000061C00000AC
S11300C05FC000005DC000005BC0000059C00000BC
S11300D057C0000055C0000053C0000051C00000CC
S11300E04FC0000008000000BE922449123EABAA93
S11300F0AA2ABECDCCCC4C3E00000080BEABAAAA3E
S1130100AA3E00000000BF000000803F0000000085
S113011000084178D3BB4387D1133D190E3CC3BDBE
S11301204282AD2B3E68EC8276BED98FE1A93E4C6B
S113013080EFFFBE01C4FF7F3F00000000001124D8
S11301401FBECFEFD1E2DEBFCDBF00E00CBF12E097
S1130150A0E0B2E0E4EEFDE200E00BBF02C00790D5
S11301600D92AC30B107D9F722E0ACE0B2E001C0A7
S11301701D92AC30B207E1F70E943D100C94F016CA
S11301803FCFCF93DF93CDB7DEB7A0970FB6F894E8
S1130190DEBF0FBECDBF82E091E022E031E0F90185
S11301A020812062FC01208380E090E0A0E8BFE38E
S11301B089839A83AB83BC832BEA3AEA4AEA5EE3F7
S11301C069817A818B819C810E947F13DC01CB0140
S11301D08D839E83AF83B88720E030E040E85EE300
S11301E069817A818B819C810E947F13DC01CB0120
S11301F089879A87AB87BC8720E030E040E85FE3DB
S11302006D817E818F8198850E94E71188231CF47B
S113021081E08D87B2C020E03FEF4FE757E4698566
S11302207A858B859C850E94361318160CF07BC04A
S113023020E030E04AE754E469817A818B819C8133
S11302400E94EB11DC01CB018E879F87A88BB98BB1
S113025020E030E04AE753E46E857F8588899989F8
S11302600E947F13DC01CB018A8B9B8BAC8BBD8BF3
S113027020E030E040E85FE36A897B898C899D89CE
S11302800E94E71188232CF481E090E09F8B8E8BF1
S11302903FC020E03FEF4FE757E46A897B898C89B0
S11302A09D890E94361318164CF520E030E040E298
S11302B051E46E857F85888999890E947F13DC01CA
S11302C0CB01BC01CD010E945812DC01CB019F8BF4
S11302D08E8B0FC089E190E0998F888F888D998DDE
S11302E00197F1F7998F888F8E899F8901979F8B4A
S11302F08E8B8E899F89892B69F73FC06A897B8998
S11303008C899D890E945812DC01CB019F8B8E8BB6
S11303108E899F899B8F8A8F8A8D9B8D0197F1F798
S11303209B8F8A8F2AC020E030E04FE753E46D8131
S11303307E818F8198850E9436131816ACF46985E6
S11303407A858B859C850E945812DC01CB019D8F98
S11303508C8F8C8D9D8D9F8F8E8F8E8D9F8D019711
S1130360F1F79F8F8E8F0FC06D817E818F8198856D
S11303700E945812DC01CB018D878D8588A388A14A
S11303808A95F1F788A382E091E022E031E0F90157
S113039020812F7DFC0120830000A0960FB6F894E5
S11303A0DEBF0FBECDBFDF91CF910895CF93DF9312
S11303B01F921F92CDB7DEB789836A838A8188230F
S11303C051F082E091E022E031E0F90120812061E6
S11303D0FC01208309C082E091E022E031E0F901D0
S11303E020812F7EFC01208382E091E022E031E035
S11303F0F9012081277FFC01208381E091E021E045
S113040031E0F90120812064FC01208384E290E042
S113041024E230E0F90120812061FC01208384E2A0
S113042090E024E230E0F90120812062FC01208385
S113043084E290E024E230E0F90120812064FC01B0
S1130440208385E290E025E230E0F90120812F7BD2
S1130450FC01208385E290E025E230E0F90120816F
S11304602F7DFC01208385E290E025E230E0F90154
S113047020812F7EFC01208382E091E022E031E0A4
S1130480F90120812F7BFC012083898188234CF48E
S113049085E290E025E230E0F90120812064FC014E
S11304A020838981882F90E080749927892B49F0D3
S11304B085E290E025E230E0F90120812062FC0130
S11304C020838981882F90E080729927892B49F0B5
S11304D085E290E025E230E0F90120812061FC0111
S11304E020838981882F90E080719927892B49F096
S11304F082E091E022E031E0F90120812064FC01F6
S113050020833FDE85E290E025E230E0F90120819E
S11305102F7BFC01208385E290E025E230E0F901A5
S113052020812F7DFC01208385E290E025E230E0EC
S1130530F90120812F7EFC01208382E091E022E0FA
S113054031E0F90120812F7BFC0120838981882FF0
S113055090E088709927892B49F085E290E025E2A4
S113056030E0F90120812064FC0120838981882FF7
S113057090E084709927892B49F085E290E025E288
S113058030E0F90120812062FC0120838981882FD9
S113059090E082709927892B49F085E290E025E26A
S11305A030E0F90120812061FC0120838981882FBA
S11305B090E081709927892B49F082E091E022E054
S11305C031E0F90120812064FC012083DADD82E03E
S11305D091E022E031E0F90120812064FC012083D4
S11305E085E290E025E230E0F90120812061FC0100
S11305F0208385E290E025E230E0F9012081206249
S1130600FC01208385E290E025E230E0F9012081BD
S11306102064FC01208300000F900F90DF91CF91A4
S113062008950F931F93CF93DF93CDB7DEB7C256D0
S1130630D1090FB6F894DEBF0FBECDBF9E012E596F
S11306403F4FF9018083CE018E599F4FFC01808179
S1130650882351F082E091E022E031E0F901208129
S11306602061FC01208309C082E091E022E031E0B6
S1130670F90120812F7EFC01208382E091E022E0B9
S113068031E0F90120812860FC01208381E091E0C0
S113069021E031E0F90120812F7BFC01208384E2F9
S11306A090E024E230E0F90120812F7EFC012083D8
S11306B084E290E024E230E0F90120812F7DFC0106
S11306C0208384E290E024E230E0F90120812F7B52
S11306D0FC01208382E091E022E031E0F9012081F5
S11306E02062FC01208380E090E0A0E8BFE38A87D9
S11306F09B87AC87BD872BEA3AEA4AEA5EE36A85C0
S11307007B858C859D850E947F13DC01CB018E87C0
S11307109F87A88BB98B20E030E040E85EE36A85D0
S11307207B858C859D850E947F13DC01CB018A8BA0
S11307309B8BAC8BBD8B20E030E040E85FE36E85A3
S11307407F85888999890E94E71188231CF481E0B8
S11307508E8BB2C020E03FEF4FE757E46A897B8974
S11307608C899D890E94361318160CF07BC020E0FA
S113077030E04AE754E46A857B858C859D850E9438
S1130780EB11DC01CB018F8B988FA98FBA8F20E0FE
S113079030E04AE753E46F89788D898D9A8D0E9401
S11307A07F13DC01CB018B8F9C8FAD8FBE8F20E03C
S11307B030E040E85FE36B8D7C8D8D8D9E8D0E94D3
S11307C0E71188232CF481E090E098A38F8F3FC039
S11307D020E03FEF4FE757E46B8D7C8D8D8D9E8D30
S11307E00E94361318164CF520E030E040E251E444
S11307F06F89788D898D9A8D0E947F13DC01CB01DE
S1130800BC01CD010E945812DC01CB0198A38F8F4B
S11308100FC089E190E09AA389A389A19AA10197C5
S1130820F1F79AA389A38F8D98A1019798A38F8F2D
S11308308F8D98A1892B69F73FC06B8D7C8D8D8D31
S11308409E8D0E945812DC01CB0198A38F8F8F8D4F
S113085098A19CA38BA38BA19CA10197F1F79CA3C6
S11308608BA32AC020E030E04FE753E46E857F85F8
S1130870888999890E9436131816ACF46A897B8991
S11308808C899D890E945812DC01CB019EA38DA303
S11308908DA19EA198A78FA38FA198A50197F1F789
S11308A098A78FA30FC06E857F85888999890E9438
S11308B05812DC01CB018E8B8E8989A789A58A9574
S11308C0F1F789A7198280E091E0FC018081882FEB
S11308D090E080749927892B19F08981806189833C
S11308E083E290E0FC018081882F90E08071992759
S11308F0892B19F089818062898383E290E0FC016D
S11309008081882F90E080729927892B19F0898142
S11309108064898383E290E0FC018081882F90E0E9
S113092080749927892B19F089818068898382E0F2
S113093091E022E031E0F90120812F7DFC01208348
S113094080E090E0A0E8BFE38E839F83A887B98707
S11309508E010A5B1F4F2BEA3AEA4AEA5EE36E8194
S11309607F81888599850E947F13DC01CB01F80182
S113097080839183A283B3838E01065B1F4F20E0A3
S113098030E040E85EE36E817F81888599850E942E
S11309907F13DC01CB01F80180839183A283B383AD
S11309A0CE018A5B9F4F20E030E040E85FE3FC012A
S11309B060817181828193810E94E71188233CF4D4
S11309C0CE01825B9F4F21E0FC0120832CC1CE012C
S11309D0865B9F4F20E03FEF4FE757E4FC016081C7
S11309E07181828193810E94361318160CF0CDC058
S11309F020E030E04AE754E46E817F818885998560
S1130A000E94EB11DC01CB019E01215B3F4FF901F8
S1130A1080839183A283B3838E010D5A1F4FCE012D
S1130A20815B9F4F20E030E04AE753E4FC016081A2
S1130A307181828193810E947F13DC01CB01F801D3
S1130A4080839183A283B383CE018D5A9F4F20E08C
S1130A5030E040E85FE3FC01608171818281938131
S1130A600E94E71188234CF4CE01895A9F4F21E05C
S1130A7030E0FC01318320836DC0CE018D5A9F4F3D
S1130A8020E03FEF4FE757E4FC01608171818281F0
S1130A9093810E94361318160CF04AC0CE01815B74
S1130AA09F4F20E030E040E251E4FC01608171811D
S1130AB0828193810E947F13DC01CB018E01095A4C
S1130AC01F4FBC01CD010E945812DC01CB01F8017B
S1130AD09183808324C0CE01875A9F4F29E130E05F
S1130AE0FC0131832083CE01875A9F4FFC01808112
S1130AF091810197F1F79E01275A3F4FF9019183A4
S1130B008083CE01895A9F4F9E01295A3F4FF90194
S1130B102081318121503109FC0131832083CE01B0
S1130B20895A9F4FFC0180819181892BA1F67BC05A
S1130B308E01095A1F4FCE018D5A9F4FFC016081CF
S1130B407181828193810E945812DC01CB01F801EA
S1130B5091838083CE01855A9F4F9E01295A3F4F2E
S1130B60F90120813181FC0131832083CE01855A32
S1130B709F4FFC01808191810197F1F79E01255AD5
S1130B803F4FF901918380834EC0CE018A5B9F4F12
S1130B9020E030E04FE753E4FC0160817181828101
S1130BA093810E94361318166CF58E01035A1F4F59
S1130BB0CE01865B9F4FFC016081718182819381AC
S1130BC00E945812DC01CB01F80191838083CE018D
S1130BD0815A9F4F9E01235A3F4FF9012081318151
S1130BE0FC0131832083CE01815A9F4FFC01808117
S1130BF091810197F1F79E01215A3F4FF9019183A9
S1130C00808328C08E01025B1F4FCE018A5B9F4FF9
S1130C10FC0160817181828193810E945812DC0100
S1130C20CB01F8018083CE018F599F4F9E01225B37
S1130C303F4FF9012081FC012083CE018F599F4F42
S1130C40FC018081282F2A95F1F7CE018F599F4FFF
S1130C50FC01208382E091E022E031E0F90120816F
S1130C602062FC01208380E090E0A0E8BFE38A8357
S1130C709B83AC83BD832BEA3AEA4AEA5EE36A814A
S1130C807B818C819D810E947F13DC01CB018AA72B
S1130C909BA7ACA7BDA720E030E040E85EE36A81F3
S1130CA07B818C819D810E947F13DC01CB018EA707
S1130CB09FA7A8ABB9AB20E030E040E85FE36AA5AA
S1130CC07BA58CA59DA50E94E71188231CF481E0D7
S1130CD08AABD0C020E03FEF4FE757E46EA57FA575
S1130CE088A999A90E94361318160CF085C020E033
S1130CF030E04AE754E46A817B818C819D810E94C3
S1130D00EB11DC01CB018BAB9CABADABBEAB20E0FC
S1130D1030E04AE753E46BA97CA98DA99EA90E94FF
S1130D207F13DC01CB018FAB98AFA9AFBAAF20E042
S1130D3030E040E85FE36FA978AD89AD9AAD0E94D9
S1130D40E71188232CF481E090E09CAF8BAF3FC087
S1130D5020E03FEF4FE757E46FA978AD89AD9AAD36
S1130D600E94361318164CF520E030E040E251E4BE
S1130D706BA97CA98DA99EA90E947F13DC01CB01DC
S1130D80BC01CD010E945812DC01CB019CAF8BAF9A
S1130D900FC089E190E09EAF8DAF8DAD9EAD019700
S1130DA0F1F79EAF8DAF8BAD9CAD01979CAF8BAF30
S1130DB08BAD9CAD892B69F75DC06FA978AD89AD0A
S1130DC09AAD0E945812DC01CB019CAF8BAF2BADC6
S1130DD03CADCE01CF96FC0131832083CE01CF966A
S1130DE0FC01808191810197F1F79E01215C3F4FC5
S1130DF0F901918380833EC020E030E04FE753E463
S1130E006AA57BA58CA59DA50E94361318164CF5E2
S1130E108E010F5B1F4F6EA57FA588A999A90E941B
S1130E205812DC01CB01F80191838083CE018D5BE4
S1130E309F4F9E012F5B3F4FF90120813181FC01BF
S1130E4031832083CE018D5B9F4FFC018081918192
S1130E500197F1F79E012D5B3F4FF9019183808348
S1130E601CC06AA57BA58CA59DA50E945812DC0117
S1130E70CB018AABCE018B5B9F4F2AA9FC01208357
S1130E80CE018B5B9F4FFC018081282F2A95F1F7BF
S1130E90CE018B5B9F4FFC01208380E091E0FC013D
S1130EA08081882F90E080749927892B19F089819B
S1130EB08160898383E290E0FC018081882F90E047
S1130EC080719927892B19F089818260898383E253
S1130ED090E0FC018081882F90E080729927892B13
S1130EE019F089818460898383E290E0FC01808128
S1130EF0882F90E080749927892B19F08981886064
S1130F00898382E091E022E031E0F90120812F7DA4
S1130F10FC0120838981CE59DF4F0FB6F894DEBFE0
S1130F200FBECDBFDF91CF911F910F9108951F93F5
S1130F30CF93DF93CDB7DEB7A0970FB6F894DEBF9B
S1130F400FBECDBF80E06DDB182F812F8823D4F333
S1130F5080E090E0A0E8B0E489839A83AB83BC830B
S1130F602BEA3AEA4AEA5EE369817A818B819C81C1
S1130F700E947F13DC01CB018D839E83AF83B887EE
S1130F8020E030E040E85EE369817A818B819C81D6
S1130F900E947F13DC01CB0189879A87AB87BC87CA
S1130FA020E030E040E85FE36D817E818F819885A9
S1130FB00E94E71188231CF481E08D87B2C020E0F1
S1130FC03FEF4FE757E469857A858B859C850E94BE
S1130FD0361318160CF07BC020E030E04AE754E4E6
S1130FE069817A818B819C810E94EB11DC01CB01A8
S1130FF08E879F87A88BB98B20E030E04AE753E4C3
S11310006E857F85888999890E947F13DC01CB01D5
S11310108A8B9B8BAC8BBD8B20E030E040E85FE398
S11310206A897B898C899D890E94E71188232CF425
S113103081E090E09F8B8E8B3FC020E03FEF4FE735
S113104057E46A897B898C899D890E943613181616
S11310504CF520E030E040E251E46E857F858889DC
S113106099890E947F13DC01CB01BC01CD010E9450
S11310705812DC01CB019F8B8E8B0FC089E190E06D
S1131080998F888F888D998D0197F1F7998F888F23
S11310908E899F8901979F8B8E8B8E899F89892B3F
S11310A069F73FC06A897B898C899D890E9458129F
S11310B0DC01CB019F8B8E8B8E899F899B8F8A8FBE
S11310C08A8D9B8D0197F1F79B8F8A8F2AC020E030
S11310D030E04FE753E46D817E818F8198850E94D3
S11310E036131816ACF469857A858B859C850E9425
S11310F05812DC01CB019D8F8C8F8C8D9D8D9F8F21
S11311008E8F8E8D9F8D0197F1F79F8F8E8F0FC0DD
S11311106D817E818F8198850E945812DC01CB01FC
S11311208D878D8588A388A18A95F1F788A380E0AF
S113113078DAA0960FB6F894DEBF0FBECDBFDF916C
S1131140CF911F9108951F93CF93DF931F92CDB733
S1131150DEB789838981803410F410E401C010E083
S113116080E8810F06D000000F90DF91CF911F918E
S11311700895CF93DF931F92CDB7DEB78983D7DE6F
S113118060E0898113D900000F90DF91CF91089519
S1131190CF93DF93CDB7DEB781E0EBDF0000DF91C3
S11311A0CF910895CF93DF931F921F92CDB7DEB7EF
S11311B08A83BDDE89838A818A3019F48981C3DFF9
S11311C003C061E08A81F2D800000F900F90DF9194
S11311D0CF9108951F93CF93DF931F921F92CDB7A2
S11311E0DEB79A83898302C0812FDCDF89819A81EB
S11311F09C012F5F3F4F3A832983FC011081112307
S113120099F700000F900F90DF91CF911F910895EF
S11312100F931F93CF93DF93CDB7DEB7C15AD10994
S11312200FB6F894DEBF0FBECDBF9E012F553F4FC2
S1131230F901808381E091E021E031E0F90120812E
S11312402061FC01208381E091E021E031E0F9019B
S113125020812860FC01208381E091E021E031E0DD
S1131260F90120812062FC01208381E091E021E0EA
S113127031E0F90120812064FC01208384E290E0C4
S113128024E230E0F90120812061FC01208384E222
S113129090E024E230E0F90120812062FC01208307
S11312A084E290E024E230E0F90120812064FC0132
S11312B0208380E090E0AAE7B6E489839A83AB8335
S11312C0BC838E010B571F4F2BEA3AEA4AEA5EE3CE
S11312D069817A818B819C810E947F13DC01CB011F
S11312E0F80180839183A283B3838E0107571F4F34
S11312F020E030E040E85EE369817A818B819C8163
S11313000E947F13DC01CB01F80180839183A283C7
S1131310B383CE018B579F4F20E030E040E85FE37A
S1131320FC0160817181828193810E94E71188238D
S11313303CF4CE0183579F4F21E0FC01208328C158
S1131340CE0187579F4F20E03FEF4FE757E4FC0162
S113135060817181828193810E94361318160CF08A
S1131360CBC020E030E04AE754E469817A818B8184
S11313709C810E94EB11DC01CB019E0122573F4F5F
S1131380F90180839183A283B3838E010E561F4F8C
S1131390CE0182579F4F20E030E04AE753E4FC013E
S11313A060817181828193810E947F13DC01CB0172
S11313B0F80180839183A283B383CE018E569F4F1D
S11313C020E030E040E85FE3FC01608171818281CC
S11313D09381FDD788234CF4CE018A569F4F21E098
S11313E030E0FC01318320836CC0CE018E569F4FC8
S11313F020E03FEF4FE757E4FC0160817181828177
S113140093810E94361318160CF04AC0CE018257FD
S11314109F4F20E030E040E251E4FC0160817181A3
S1131420828193810E947F13DC01CB018E010A56D5
S11314301F4FBC01CD010E945812DC01CB01F80101
S11314409183808324C0CE0188569F4F29E130E0E8
S1131450FC0131832083CE0188569F4FFC0180819B
S113146091810197F1F79E0128563F4FF90191832D
S11314708083CE018A569F4F9E012A563F4FF90121
S11314802081318121503109FC0131832083CE0137
S11314908A569F4FFC0180819181892BA1F678C0E7
S11314A08E010A561F4FCE018E569F4FFC0160815C
S11314B0718182819381FCD7DC01CB01F801918396
S11314C08083CE0186569F4F9E012A563F4FF901D5
S11314D020813181FC0131832083CE0186569F4FC8
S11314E0FC01808191810197F1F79E0126563F4FBF
S11314F0F901918380834CC0CE018B579F4F20E02C
S113150030E04FE753E4FC01608171818281938173
S11315100E943613181664F58E0104561F4FCE012F
S113152087579F4FFC016081718182819381C0D76D
S1131530DC01CB01F80191838083CE0182569F4F59
S11315409E0124563F4FF90120813181FC013183F2
S11315502083CE0182569F4FFC01808191810197A7
S1131560F1F79E0122563F4FF9019183808327C0F2
S11315708E0103571F4FCE018B579F4FFC01608193
S113158071818281938194D7DC01CB01F80180833E
S1131590CE0180569F4F9E0123573F4FF901208172
S11315A0FC012083CE0180569F4FFC018081282FAF
S11315B02A95F1F7CE0180569F4FFC01208385E2E6
S11315C090E025E230E0F90120812061FC012083D4
S11315D082E091E022E031E0F90120812064FC0105
S11315E020830E94C10080E090E4ACE9B5E48D83DF
S11315F09E83AF83B8878E0107591F4F2BEA3AEABF
S11316004AEA5EE36D817E818F8198850E947F1313
S1131610DC01CB01F80180839183A283B3838E0123
S113162003591F4F20E030E040E85EE36D817E8186
S11316308F8198850E947F13DC01CB01F8018083A0
S11316409183A283B383CE0187599F4F20E030E07A
S113165040E85FE3FC016081718182819381B7D6A8
S113166088233CF4CE018F589F4F21E0FC01208356
S113167022C1CE0183599F4F20E03FEF4FE757E44B
S1131680FC016081718182819381F0D718160CF07E
S1131690C7C020E030E04AE754E46D817E818F8149
S11316A0988599D6DC01CB019E012E583F4FF90154
S11316B080839183A283B3838E010A581F4FCE0186
S11316C08E589F4F20E030E04AE753E4FC016081EC
S11316D07181828193810E947F13DC01CB01F80127
S11316E080839183A283B383CE018A589F4F20E0E5
S11316F030E040E85FE3FC01608171818281938185
S113170066D688234CF4CE0186589F4F21E030E002
S1131710FC013183208369C0CE018A589F4F20E0A9
S11317203FEF4FE757E4FC0160817181828193812F
S11317309DD718160CF048C0CE018E589F4F20E05C
S113174030E040E251E4FC01608171818281938147
S1131750D6D7DC01CB018E0106581F4FBC01CD0149
S1131760A7D6DC01CB01F8019183808324C0CE018C
S113177084589F4F29E130E0FC0131832083CE015E
S113178084589F4FFC01808191810197F1F79E015C
S113179024583F4FF90191838083CE0186589F4F8F
S11317A09E0126583F4FF901208131812150310992
S11317B0FC0131832083CE0186589F4FFC01808138
S11317C09181892BA1F677C08E0106581F4FCE0157
S11317D08A589F4FFC01608171818281938168D610
S11317E0DC01CB01F80191838083CE0182589F4FA5
S11317F09E0126583F4FF90120813181FC0131833C
S11318002083CE0182589F4FFC01808191810197F2
S1131810F1F79E0122583F4FF901918380834BC019
S1131820CE0187599F4F20E030E04FE753E4FC019D
S1131830608171818281938119D7181664F58E01B4
S113184000581F4FCE0183599F4FFC016081718165
S1131850828193812DD6DC01CB01F80191838083B1
S1131860CE018E579F4F9E0120583F4FF901208192
S11318703181FC0131832083CE018E579F4FFC01BF
S1131880808191810197F1F79E012E573F4FF90115
S11318909183808327C08E010F581F4FCE01875933
S11318A09F4FFC01608171818281938101D6DC01AB
S11318B0CB01F8018083CE018C579F4F9E012F5896
S11318C03F4FF9012081FC012083CE018C579F4FAB
S11318D0FC018081282F2A95F1F7CE018C579F4F68
S11318E0FC0120830E94C10080E090E0A0E8B2E403
S11318F089879A87AB87BC878E01035B1F4F2BEACE
S11319003AEA4AEA5EE369857A858B859C85F7D64F
S1131910DC01CB01F80180839183A283B3838E0120
S11319200F5A1F4F20E030E040E85EE369857A8576
S11319308B859C85E4D6DC01CB01F80180839183FF
S1131940A283B383CE01835B9F4F20E030E040E865
S11319505FE3FC01608171818281938138D58823A2
S11319603CF4CE018B5A9F4F21E0FC01208321C11E
S1131970CE018F5A9F4F20E03FEF4FE757E4FC0121
S1131980608171818281938171D618160CF0C6C072
S113199020E030E04AE754E469857A858B859C85AC
S11319A01AD5DC01CB019E012A5A3F4FF9018083ED
S11319B09183A283B3838E01065A1F4FCE018A5AA4
S11319C09F4F20E030E04AE753E4FC0160817181DD
S11319D08281938194D6DC01CB01F80180839183C9
S11319E0A283B383CE01865A9F4F20E030E040E8C3
S11319F05FE3FC016081718182819381E8D4882353
S1131A004CF4CE01825A9F4F21E030E0FC01318337
S1131A10208369C0CE01865A9F4F20E03FEF4FE7F5
S1131A2057E4FC0160817181828193811FD618166D
S1131A300CF048C0CE018A5A9F4F20E030E040E2CB
S1131A4051E4FC01608171818281938158D6DC016B
S1131A50CB018E01025A1F4FBC01CD0129D5DC01F7
S1131A60CB01F8019183808324C0CE01805A9F4F1B
S1131A7029E130E0FC0131832083CE01805A9F4F5D
S1131A80FC01808191810197F1F79E01205A3F4F1B
S1131A90F90191838083CE01825A9F4F9E01225A7D
S1131AA03F4FF9012081318121503109FC013183FB
S1131AB02083CE01825A9F4FFC0180819181892B22
S1131AC0A1F677C08E01025A1F4FCE01865A9F4F4E
S1131AD0FC016081718182819381EAD4DC01CB01B4
S1131AE0F80191838083CE018E599F4F9E01225A23
S1131AF03F4FF90120813181FC0131832083CE01E4
S1131B008E599F4FFC01808191810197F1F79E01CD
S1131B102E593F4FF901918380834BC0CE01835BE3
S1131B209F4F20E030E04FE753E4FC016081718176
S1131B30828193819BD5181664F58E010C591F4F31
S1131B40CE018F5A9F4FFC01608171818281938104
S1131B50AFD4DC01CB01F80191838083CE018A5993
S1131B609F4F9E012C593F4FF90120813181FC0187
S1131B7031832083CE018A599F4FFC01808191815A
S1131B800197F1F79E012A593F4FF9019183808310
S1131B9027C08E010B5A1F4FCE01835B9F4FFC0160
S1131BA0608171818281938183D4DC01CB01F8014E
S1131BB08083CE0188599F4F9E012B5A3F4FF901D4
S1131BC02081FC012083CE0188599F4FFC01808134
S1131BD0282F2A95F1F7CE0188599F4FFC012083C5
S1131BE00E94C10080E090E0A0E8B2E48D879E8767
S1131BF0AF87B88B2BEA3AEA4AEA5EE36D857E85C5
S1131C008F8598897CD5DC01CB0189AB9AABABABD2
S1131C10BCAB20E030E040E85EE36D857E858F85D7
S1131C2098896DD5DC01CB018DAB9EABAFABB8AF62
S1131C3020E030E040E85FE369A97AA98BA99CA978
S1131C40C6D388231CF481E089AFFEC020E03FEFB7
S1131C504FE757E46DA97EA98FA998AD07D518164B
S1131C600CF0B7C020E030E04AE754E46D857E858F
S1131C708F859889B0D3DC01CB018AAF9BAFACAF21
S1131C80BDAF8E01025C1F4F20E030E04AE753E411
S1131C906AAD7BAD8CAD9DAD32D5DC01CB01F801D5
S1131CA080839183A283B383CE01CE9620E030E07B
S1131CB040E85FE3FC01608171818281938187D375
S1131CC088234CF4CE018E5B9F4F21E030E0FC0171
S1131CD03183208363C0CE01CE9620E03FEF4FE7EF
S1131CE057E4FC016081718182819381BFD418160D
S1131CF00CF044C020E030E040E251E46AAD7BAD3A
S1131D008CAD9DADFCD4DC01CB018E010E5B1F4F6D
S1131D10BC01CD01CDD3DC01CB01F80191838083DB
S1131D2024C0CE018C5B9F4F29E130E0FC0131835C
S1131D302083CE018C5B9F4FFC01808191810197B0
S1131D40F1F79E012C5B3F4FF90191838083CE0113
S1131D508E5B9F4F9E012E5B3F4FF90120813181A5
S1131D6021503109FC0131832083CE018E5B9F4FCA
S1131D70FC0180819181892BA1F666C08E010E5BE6
S1131D801F4FCE01CE96FC016081718182819381C7
S1131D908FD3DC01CB01F80191838083CE018A5B70
S1131DA09F4F9E012E5B3F4FF90120813181FC0141
S1131DB031832083CE018A5B9F4FFC018081918116
S1131DC00197F1F79E012A5B3F4FF90191838083CC
S1131DD03BC020E030E04FE753E469A97AA98BA91E
S1131DE09CA944D4181644F58E01085B1F4F6DA9B5
S1131DF07EA98FA998AD5CD3DC01CB01F801918356
S1131E008083CE01865B9F4F9E01285B3F4FF90183
S1131E1020813181FC0131832083CE01865B9F4F79
S1131E20FC01808191810197F1F79E01265B3F4F70
S1131E30F901918380831BC069A97AA98BA99CA904
S1131E4037D3DC01CB0189AFCE01845B9F4F29AD31
S1131E50FC012083CE01845B9F4FFC018081282FED
S1131E602A95F1F7CE01845B9F4FFC01208382E029
S1131E7091E022E031E0F90120812F7BFC012083F5
S1131E800E94C10080E090E0A0E8B2E4898B9A8BC4
S1131E90AB8BBC8B2BEA3AEA4AEA5EE369897A891E
S1131EA08B899C892CD4DC01CB018D8B9E8BAF8BD1
S1131EB0B88F20E030E040E85EE369897A898B8955
S1131EC09C891DD4DC01CB01898F9A8FAB8FBC8F89
S1131ED020E030E040E85FE36D897E898F89988D4A
S1131EE076D288231CF481E08D8FA7C020E03FEFD9
S1131EF04FE757E4698D7A8D8B8D9C8DB7D3181677
S1131F000CF074C020E030E04AE754E469897A892F
S1131F108B899C8960D2DC01CB018E8F9F8FA8A313
S1131F20B9A320E030E04AE753E46E8D7F8D88A1A9
S1131F3099A1E5D3DC01CB018AA39BA3ACA3BDA3E8
S1131F4020E030E040E85FE36AA17BA18CA19DA181
S1131F503ED288232CF481E090E09FA38EA33BC063
S1131F6020E03FEF4FE757E46AA17BA18CA19DA13C
S1131F707DD318163CF520E030E040E251E46E8D4C
S1131F807F8D88A199A1BBD3DC01CB01BC01CD011C
S1131F908FD2DC01CB019FA38EA30FC089E190E017
S1131FA099A788A788A599A50197F1F799A788A764
S1131FB08EA19FA101979FA38EA38EA19FA1892B80
S1131FC069F73BC06AA17BA18CA19DA171D2DC0100
S1131FD0CB019FA38EA38EA19FA19BA78AA78AA5AD
S1131FE09BA50197F1F79BA78AA727C020E030E0C3
S1131FF04FE753E46D897E898F89988D37D31816FE
S1132000A4F4698D7A8D8B8D9C8D52D2DC01CB0129
S11320109DA78CA78CA59DA59FA78EA78EA59FA5E0
S11320200197F1F79FA78EA70EC06D897E898F89CE
S1132030988D3ED2DC01CB018D8F8D8D88AB88A924
S11320408A95F1F788AB88E294D888E092D8A0D832
S113205086E08FD8CE018F559F4FFC01808189D8AF
S11320600000CF55DF4F0FB6F894DEBF0FBECDBFD3
S1132070DF91CF911F910F910895CF93DF93CDB747
S1132080DEB7A1970FB6F894DEBF0FBECDBF1A829C
S113209019828FE0BDD88CE790E02CE730E0F9019D
S11320A020812064FC0120838EE790E02EE730E05D
S11320B0F90120812160FC0120838AE790E026EC6D
S11320C0FC01208365D88AE790E0FC018081882F99
S11320D090E080749927892B09F083C088E790E009
S11320E0FC01808191819C838B838B819C81CC01B9
S11320F0A0E0B0E0BC01CD0107D2DC01CB019C0122
S1132100AD0160E070E080E894E465D1DC01CB01CE
S113211020E030E040E85FE3BC01CD01F3D0DC0116
S1132120CB0120E030E44CE156E4BC01CD01E7D220
S1132130DC01CB01BC01CD01A2D2DC01CB018D833A
S11321409E83AF83B88729E537E44CEB53E36D8175
S11321507E818F819885D3D2DC01CB012D813E8194
S11321604F815885BC01CD01CAD2DC01CB0123E7E4
S11321703FE745E759E3BC01CD01C5D0DC01CB0104
S11321802D813E814F815885BC01CD01B8D2DC013F
S1132190CB012BEE3FEF43E95AE3BC01CD01B3D0B1
S11321A0DC01CB019C01AD0160E070E080E89FE3BD
S11321B012D1DC01CB0189879A87AB87BC8723E3E3
S11321C033E948E853E469857A858B859C859AD000
S11321D0DC01CB01BC01CD0166D1DC01CB019A83CA
S11321E089838A818F9389818F9380E092E0892FFC
S11321F08F9380E092E08F93CE014B96292F2F93FB
S11322008F9313D30F900F900F900F900F900F9008
S1132210CE014B960E94EA088AE790E02AE730E074
S1132220F90120812064FC01208380E090E0A8E48F
S1132230B4E48D879E87AF87B88B20E030E04AE70F
S113224055E46D857E858F85988959D2DC01CB0153
S1132250898B9A8BAB8BBC8B20E030E040E85FE34A
S113226069897A898B899C89B2D088232CF481E08E
S113227090E09E8B8D8B3BC020E03FEF4FE757E40F
S113228069897A898B899C89F1D118163CF520E0FB
S113229030E040E251E46D857E858F8598892FD2A8
S11322A0DC01CB01BC01CD0103D1DC01CB019E8B50
S11322B08D8B0FC080E991E0988F8F8B8F89988DDB
S11322C00197F1F7988F8F8B8D899E8901979E8B4B
S11322D08D8B8D899E89892B69F713C069897A89C9
S11322E08B899C89E5D0DC01CB019E8B8D8B8D89FC
S11322F09E899A8F898F898D9A8D0197F1F79A8F8C
S1132300898FE0CE5058BB27AA270ED075C166D15D
S113231030F06BD120F031F49F3F11F41EF45BC117
S11323200EF4E095E7FB51C1E92F77D180F3BA179A
S1132330620773078407950718F071F49EF58FC13F
S11323400EF4E0950B2EBA2FA02D0B01B9019001CC
S11323500C01CA01A0011124FF27591B99F0593F10
S113236050F4503E68F11A16F040A22F232F342F58
S11323704427585FF3CF469537952795A795F040A6
S11323805395C9F77EF41F16BA0B620B730B840BBB
S1132390BAF09150A1F0FF0FBB1F661F771F881F73
S11323A0C2F70EC0BA0F621F731F841F48F48795CB
S11323B077956795B795F7959E3F08F0B3CF9395BA
S11323C0880F08F09927EE0F979587950895D9D02F
S11323D008F481E008950CD00FC107D140F0FED07D
S11323E030F021F45F3F19F0F0C0511139C1F3C04E
S11323F014D198F39923C9F35523B1F3951B550BC5
S1132400BB27AA2762177307840738F09F5F5F4FC3
S1132410220F331F441FAA1FA9F333D00E2E3AF004
S1132420E0E830D091505040E695001CCAF729D01E
S1132430FE2F27D0660F771F881FBB1F261737076D
S11324404807AB07B0E809F0BB0B802DBF01FF279D
S113245093585F4F2AF09E3F510568F0B6C000C103
S11324605F3FECF3983EDCF3869577956795B795D7
S1132470F7959F5FC9F7880F911D9695879597F9F2
S11324800895E1E0660F771F881FBB1F621773076B
S11324908407BA0720F0621B730B840BBA0BEE1F80
S11324A088F7E095089504D06894B111D9C00895CF
S11324B0BCD088F09F5790F0B92F9927B751A0F05E
S11324C0D1F0660F771F881F991F1AF0BA95C9F7C4
S11324D012C0B13081F0C3D0B1E00895C0C0672FFD
S11324E0782F8827B85F39F0B93FCCF38695779574
S11324F06795B395D9F73EF490958095709561955D
S11325007F4F8F4F9F4F0895E89409C097FB3EF487
S113251090958095709561957F4F8F4F9F4F99232C
S1132520A9F0F92F96E9BB279395F69587957795AA
S11325306795B795F111F8CFFAF4BB0F11F460FF6A
S11325401BC06F5F7F4F8F4F9F4F16C0882311F0C2
S113255096E911C0772321F09EE8872F762F05C0D6
S1132560662371F096E8862F70E060E02AF09A9571
S1132570660F771F881FDAF7880F9695879597F966
S11325800895990F0008550FAA0BE0E8FEEF161600
S11325901706E807F907C0F012161306E407F50753
S11325A098F0621B730B840B950B39F40A2661F0C7
S11325B0232B242B252B21F408950A2609F4A1406A
S11325C0A6958FEF811D811D089597F99F6780E877
S11325D070E060E008959FEF80EC089500240A9471
S11325E01616170618060906089500240A941216EA
S11325F01306140605060895092E0394000C11F41D
S1132600882352F0BB0F40F4BF2B11F460FF04C0C9
S11326106F5F7F4F8F4F9F4F089557FD9058440F22
S1132620551F59F05F3F71F04795880F97FB991F2D
S113263061F09F3F79F087950895121613061406EA
S1132640551FF2CF4695F1DF08C016161706180677
S1132650991FF1CF86957105610508940895E89452
S1132660BB2766277727CB0197F908958ADF08F4FB
S11326708FEF08950EF0A6C0AECF6894A6CFD5DF35
S1132680C8F39923D1F3C6F3DF93CF931F930F932A
S1132690FF92C92FDD2788232AF02197660F771F21
S11326A0881FDAF720E030E040E85FEB9FE38839E9
S11326B020F0803E30F021968F7725DEE4EEF0E0C6
S11326C003C021DEE1E1F1E08BD08B01BE01EC011E
S11326D0FB2E6F5771097595771F880B990B16DFC1
S11326E028E132E741E35FE316D0AF2D9801AE0154
S11326F0FF900F911F91CF91DF9116DE7DCF0BD00C
S11327007BCF6CDF28F071DF18F0952309F05DCFE3
S113271062CF1124A5CF81DFA0F3959FD1F3950F4C
S113272050E0551F629FF001729FBB27F00DB11D51
S1132730639FAA27F00DB11DAA1F649F6627B00DE1
S1132740A11D661F829F2227B00DA11D621F739FCA
S1132750B00DA11D621F839FA00D611D221F749FD8
S11327603327A00D611D231F849F600D211D822F1F
S1132770762F6A2F11249F5750408AF0E1F0882366
S11327804AF0EE0FFF1FBB1F661F771F881F915073
S11327905040A9F79E3F510570F017CF61CF5F3FBE
S11327A0ECF3983EDCF3869577956795B795F795A6
S11327B0E7959F5FC1F7FE2B880F911D969587952E
S11327C097F908959F3F31F0915020F487957795BC
S11327D06795B795880F911D9695879597F90895F4
S11327E0DF93CF931F930F93FF92EF92DF927B01BE
S11327F08C01689405C0DA2EEF018DDFFE01E894A8
S1132800A5912591359145915591AEF3EF018CDD5C
S1132810FE019701A801DA9479F7DF90EF90FF9019
S11328200F911F91CF91DF9108950F931F93CF9331
S1132830DF93CDB7DEB72E970FB6F894DEBF0FBE89
S1132840CDBF0E891F8986E08C831A8309838FEF9D
S11328509FE79E838D83AE01465E5F4F688D798DC1
S1132860CE01019610D0EF81F885E00FF11F1082A0
S11328702E960FB6F894DEBF0FBECDBFDF91CF9179
S11328801F910F9108952F923F924F925F926F92F2
S11328907F928F929F92AF92BF92CF92DF92EF92EC
S11328A0FF920F931F93CF93DF93CDB7DEB72B9790
S11328B00FB6F894DEBF0FBECDBF6C017B018A0159
S11328C0FC0117821682838181FFBFC1CE0101966C
S11328D03C01F6019381F70193FD859193FF81916A
S11328E07F01882309F4ADC1853239F493FD8591C4
S11328F093FF81917F01853221F4B60190E0D6D116
S1132900E8CF912C212C312CFFE1F315D8F08B3238
S113291079F038F4803279F08332A1F4232D2061E8
S11329201DC08D3261F0803369F4232D216016C0FF
S1132930832D8260382EE32DE4603E2E2AC0F32DD1
S1132940F8601DC037FC2DC020ED280F2A3040F060
S11329508E32B9F436FC75C1232D2064322E19C091
S113296036FE06C08AE0989E200D1124922E11C0D6
S1132970EAE02E9E200D1124222EF32DF0623F2E2C
S113298008C08C3621F4832D8068382E02C0883626
S113299041F4F70193FD859193FF81917F018111AA
S11329A0B3CF982F9F7D9554933028F40C5F1F4F1D
S11329B09FE399830DC0833631F0833771F08335FB
S11329C009F055C020C0F801808189830E5F1F4F34
S11329D088248394912C530112C02801F2E04F0EF5
S11329E0511CF801A080B18036FE03C0692D70E04F
S11329F002C06FEF7FEFC5014ED14C018201F32D70
S1132A00FF773F2E15C0280122E0420E511CF80129
S1132A10A080B18036FE03C0692D70E002C06FEF64
S1132A207FEFC5012DD14C01F32DF0683F2E8201BB
S1132A3033FC19C0822D90E088169906A0F4B601E3
S1132A4080E290E033D12A94F5CFF50137FC8591EB
S1132A5037FE81915F01B60190E028D121102A94BC
S1132A6021E0821A91088114910479F7E1C0843637
S1132A7011F0893639F5F80137FE07C0608171819C
S1132A80828193810C5F1F4F08C060817181072E82
S1132A90000C880B990B0E5F1F4FF32DFF763F2E12
S1132AA097FF09C090958095709561957F4F8F4FE2
S1132AB09F4FF0683F2E2AE030E0A30133D1882EE7
S1132AC0861844C0853731F4232D2F7EB22E2AE098
S1132AD030E025C0932D997FB92E8F36C1F018F4BC
S1132AE0883579F0AEC0803719F0883721F0A9C055
S1132AF0E92FE061BE2EB4FE0DC0FB2DF460BF2EA5
S1132B0009C034FE0AC0292F2660B22E06C028E070
S1132B1030E005C020E130E002C020E132E0F801FD
S1132B20B7FE07C060817181828193810C5F1F4F62
S1132B3006C06081718180E090E00E5F1F4FA301A9
S1132B40F1D0882E8618FB2DFF773F2E36FE0DC060
S1132B50232D2E7FA22E891458F434FE0BC032FC90
S1132B6009C0832D8E7EA82E05C0B82CA32C03C0CB
S1132B70B82C01C0B92CA4FE0FC0FE01E80DF11D54
S1132B808081803321F49A2D997EA92E09C0A2FE5A
S1132B9006C0B394B39404C08A2D867809F0B39424
S1132BA0A3FC10C0A0FE06C0B21480F4280C922C22
S1132BB09B180DC0B21458F4B60180E290E076D0B0
S1132BC0B394F8CFB21418F42B1802C0982C212C0B
S1132BD0A4FE0FC0B60180E390E068D0A2FE16C048
S1132BE0A1FC03C088E790E002C088E590E0B6014C
S1132BF00CC08A2D867851F0A1FE02C08BE201C080
S1132C0080E2A7FC8DE2B60190E050D0891430F444
S1132C10B60180E390E04AD09A94F8CF8A94F30105
S1132C20E80DF11D8081B60190E040D08110F6CF0F
S1132C30222009F44ECEB60180E290E037D02A94E7
S1132C40F7CFF6018681978102C08FEF9FEF2B9615
S1132C500FB6F894DEBF0FBECDBFDF91CF911F91A9
S1132C600F91FF90EF90DF90CF90BF90AF909F9027
S1132C708F907F906F905F904F903F902F9008952A
S1132C80FC010590615070400110D8F78095909533
S1132C908E0F9F1F0895FC01615070400190011038
S1132CA0D8F7809590958E0F9F1F08950F931F93CB
S1132CB0CF93DF93FB01238121FD03C08FEF9FEFAF
S1132CC02CC022FF16C046815781248135814217CA
S1132CD0530744F4A081B1819D012F5F3F4F31839D
S1132CE020838C93268137812F5F3F4F3783268340
S1132CF014C08B01EC01FB010084F185E02D1995D2
S1132D00892BE1F6D80116968D919C91179701961F
S1132D1017969C938E931697CE01DF91CF911F91B6
S1132D200F910895FA01AA27283051F1203181F139
S1132D30E8946F936E7F6E5F7F4F8F4F9F4FAF4FBF
S1132D40B1E03ED0B4E03CD0670F781F891F9A1FD2
S1132D50A11D680F791F8A1F911DA11D6A0F711D86
S1132D60811D911DA11D20D009F468943F912AE092
S1132D70269F11243019305D3193DEF6CF0108957A
S1132D80462F4770405D4193B3E00FD0C9F7F6CFAB
S1132D90462F4F70405D4A3318F0495D31FD405273
S1132DA0419302D0A9F7EACFB4E0A6959795879509
S1132DB077956795BA95C9F70097610571050895E8
S1132DC09B01AC010A2E0694579547953795279594
S1132DD0BA95C9F7620F731F841F951FA01D08952C
S1072DE0F894FFCF91
S10F2DE454656D703A2025642043000003
S9030000FC
